{
  "contractName": "Moloch",
  "abi": [
    {
      "constant": true,
      "inputs": [],
      "name": "processingReward",
      "outputs": [
        {
          "name": "",
          "type": "uint256"
        }
      ],
      "payable": false,
      "stateMutability": "view",
      "type": "function"
    },
    {
      "constant": true,
      "inputs": [
        {
          "name": "",
          "type": "address"
        }
      ],
      "name": "members",
      "outputs": [
        {
          "name": "delegateKey",
          "type": "address"
        },
        {
          "name": "shares",
          "type": "uint256"
        },
        {
          "name": "exists",
          "type": "bool"
        },
        {
          "name": "highestIndexYesVote",
          "type": "uint256"
        },
        {
          "name": "delegated",
          "type": "bool"
        }
      ],
      "payable": false,
      "stateMutability": "view",
      "type": "function"
    },
    {
      "constant": true,
      "inputs": [],
      "name": "totalSharesRequested",
      "outputs": [
        {
          "name": "",
          "type": "uint256"
        }
      ],
      "payable": false,
      "stateMutability": "view",
      "type": "function"
    },
    {
      "constant": true,
      "inputs": [],
      "name": "totalShares",
      "outputs": [
        {
          "name": "",
          "type": "uint256"
        }
      ],
      "payable": false,
      "stateMutability": "view",
      "type": "function"
    },
    {
      "constant": true,
      "inputs": [
        {
          "name": "",
          "type": "uint256"
        }
      ],
      "name": "proposalQueue",
      "outputs": [
        {
          "name": "proposer",
          "type": "address"
        },
        {
          "name": "applicant",
          "type": "address"
        },
        {
          "name": "sharesRequested",
          "type": "uint256"
        },
        {
          "name": "startingPeriod",
          "type": "uint256"
        },
        {
          "name": "yesVotes",
          "type": "uint256"
        },
        {
          "name": "noVotes",
          "type": "uint256"
        },
        {
          "name": "processed",
          "type": "bool"
        },
        {
          "name": "didPass",
          "type": "bool"
        },
        {
          "name": "aborted",
          "type": "bool"
        },
        {
          "name": "tokenTribute",
          "type": "uint256"
        },
        {
          "name": "details",
          "type": "string"
        },
        {
          "name": "maxTotalSharesAtYesVote",
          "type": "uint256"
        }
      ],
      "payable": false,
      "stateMutability": "view",
      "type": "function"
    },
    {
      "constant": true,
      "inputs": [
        {
          "name": "",
          "type": "address"
        }
      ],
      "name": "memberAddressByDelegateKey",
      "outputs": [
        {
          "name": "",
          "type": "address"
        }
      ],
      "payable": false,
      "stateMutability": "view",
      "type": "function"
    },
    {
      "constant": true,
      "inputs": [],
      "name": "gracePeriodLength",
      "outputs": [
        {
          "name": "",
          "type": "uint256"
        }
      ],
      "payable": false,
      "stateMutability": "view",
      "type": "function"
    },
    {
      "constant": true,
      "inputs": [],
      "name": "abortWindow",
      "outputs": [
        {
          "name": "",
          "type": "uint256"
        }
      ],
      "payable": false,
      "stateMutability": "view",
      "type": "function"
    },
    {
      "constant": true,
      "inputs": [],
      "name": "summoningTime",
      "outputs": [
        {
          "name": "",
          "type": "uint256"
        }
      ],
      "payable": false,
      "stateMutability": "view",
      "type": "function"
    },
    {
      "constant": true,
      "inputs": [],
      "name": "votingPeriodLength",
      "outputs": [
        {
          "name": "",
          "type": "uint256"
        }
      ],
      "payable": false,
      "stateMutability": "view",
      "type": "function"
    },
    {
      "constant": true,
      "inputs": [],
      "name": "proposalDeposit",
      "outputs": [
        {
          "name": "",
          "type": "uint256"
        }
      ],
      "payable": false,
      "stateMutability": "view",
      "type": "function"
    },
    {
      "constant": true,
      "inputs": [],
      "name": "guildBank",
      "outputs": [
        {
          "name": "",
          "type": "address"
        }
      ],
      "payable": false,
      "stateMutability": "view",
      "type": "function"
    },
    {
      "constant": true,
      "inputs": [],
      "name": "dilutionBound",
      "outputs": [
        {
          "name": "",
          "type": "uint256"
        }
      ],
      "payable": false,
      "stateMutability": "view",
      "type": "function"
    },
    {
      "constant": true,
      "inputs": [],
      "name": "periodDuration",
      "outputs": [
        {
          "name": "",
          "type": "uint256"
        }
      ],
      "payable": false,
      "stateMutability": "view",
      "type": "function"
    },
    {
      "constant": true,
      "inputs": [],
      "name": "approvedToken",
      "outputs": [
        {
          "name": "",
          "type": "address"
        }
      ],
      "payable": false,
      "stateMutability": "view",
      "type": "function"
    },
    {
      "inputs": [
        {
          "name": "summoner",
          "type": "address"
        },
        {
          "name": "_approvedToken",
          "type": "address"
        },
        {
          "name": "_periodDuration",
          "type": "uint256"
        },
        {
          "name": "_votingPeriodLength",
          "type": "uint256"
        },
        {
          "name": "_gracePeriodLength",
          "type": "uint256"
        },
        {
          "name": "_abortWindow",
          "type": "uint256"
        },
        {
          "name": "_proposalDeposit",
          "type": "uint256"
        },
        {
          "name": "_dilutionBound",
          "type": "uint256"
        },
        {
          "name": "_processingReward",
          "type": "uint256"
        }
      ],
      "payable": false,
      "stateMutability": "nonpayable",
      "type": "constructor"
    },
    {
      "anonymous": false,
      "inputs": [
        {
          "indexed": false,
          "name": "proposalIndex",
          "type": "uint256"
        },
        {
          "indexed": true,
          "name": "delegateKey",
          "type": "address"
        },
        {
          "indexed": true,
          "name": "memberAddress",
          "type": "address"
        },
        {
          "indexed": true,
          "name": "applicant",
          "type": "address"
        },
        {
          "indexed": false,
          "name": "tokenTribute",
          "type": "uint256"
        },
        {
          "indexed": false,
          "name": "sharesRequested",
          "type": "uint256"
        }
      ],
      "name": "SubmitProposal",
      "type": "event"
    },
    {
      "anonymous": false,
      "inputs": [
        {
          "indexed": true,
          "name": "proposalIndex",
          "type": "uint256"
        },
        {
          "indexed": true,
          "name": "delegateKey",
          "type": "address"
        },
        {
          "indexed": true,
          "name": "memberAddress",
          "type": "address"
        },
        {
          "indexed": false,
          "name": "uintVote",
          "type": "uint8"
        }
      ],
      "name": "SubmitVote",
      "type": "event"
    },
    {
      "anonymous": false,
      "inputs": [
        {
          "indexed": true,
          "name": "proposalIndex",
          "type": "uint256"
        },
        {
          "indexed": true,
          "name": "applicant",
          "type": "address"
        },
        {
          "indexed": true,
          "name": "memberAddress",
          "type": "address"
        },
        {
          "indexed": false,
          "name": "tokenTribute",
          "type": "uint256"
        },
        {
          "indexed": false,
          "name": "sharesRequested",
          "type": "uint256"
        },
        {
          "indexed": false,
          "name": "didPass",
          "type": "bool"
        }
      ],
      "name": "ProcessProposal",
      "type": "event"
    },
    {
      "anonymous": false,
      "inputs": [
        {
          "indexed": true,
          "name": "memberAddress",
          "type": "address"
        },
        {
          "indexed": false,
          "name": "sharesToBurn",
          "type": "uint256"
        }
      ],
      "name": "Ragequit",
      "type": "event"
    },
    {
      "anonymous": false,
      "inputs": [
        {
          "indexed": true,
          "name": "proposalIndex",
          "type": "uint256"
        },
        {
          "indexed": false,
          "name": "applicantAddress",
          "type": "address"
        }
      ],
      "name": "Abort",
      "type": "event"
    },
    {
      "anonymous": false,
      "inputs": [
        {
          "indexed": true,
          "name": "memberAddress",
          "type": "address"
        },
        {
          "indexed": false,
          "name": "newDelegateKey",
          "type": "address"
        }
      ],
      "name": "UpdateDelegateKey",
      "type": "event"
    },
    {
      "anonymous": false,
      "inputs": [
        {
          "indexed": true,
          "name": "summoner",
          "type": "address"
        },
        {
          "indexed": false,
          "name": "shares",
          "type": "uint256"
        }
      ],
      "name": "SummonComplete",
      "type": "event"
    },
    {
      "anonymous": false,
      "inputs": [
        {
          "indexed": true,
          "name": "from",
          "type": "address"
        },
        {
          "indexed": true,
          "name": "to",
          "type": "address"
        }
      ],
      "name": "SharesDelegated",
      "type": "event"
    },
    {
      "anonymous": false,
      "inputs": [
        {
          "indexed": true,
          "name": "from",
          "type": "address"
        },
        {
          "indexed": true,
          "name": "to",
          "type": "address"
        }
      ],
      "name": "SharesRetrieved",
      "type": "event"
    },
    {
      "constant": false,
      "inputs": [
        {
          "name": "applicant",
          "type": "address"
        },
        {
          "name": "tokenTribute",
          "type": "uint256"
        },
        {
          "name": "sharesRequested",
          "type": "uint256"
        },
        {
          "name": "details",
          "type": "string"
        }
      ],
      "name": "submitProposal",
      "outputs": [],
      "payable": false,
      "stateMutability": "nonpayable",
      "type": "function"
    },
    {
      "constant": false,
      "inputs": [
        {
          "name": "proposalIndex",
          "type": "uint256"
        },
        {
          "name": "uintVote",
          "type": "uint8"
        }
      ],
      "name": "submitVote",
      "outputs": [],
      "payable": false,
      "stateMutability": "nonpayable",
      "type": "function"
    },
    {
      "constant": false,
      "inputs": [
        {
          "name": "proposalIndex",
          "type": "uint256"
        }
      ],
      "name": "processProposal",
      "outputs": [],
      "payable": false,
      "stateMutability": "nonpayable",
      "type": "function"
    },
    {
      "constant": false,
      "inputs": [
        {
          "name": "sharesToBurn",
          "type": "uint256"
        }
      ],
      "name": "ragequit",
      "outputs": [],
      "payable": false,
      "stateMutability": "nonpayable",
      "type": "function"
    },
    {
      "constant": false,
      "inputs": [
        {
          "name": "proposalIndex",
          "type": "uint256"
        }
      ],
      "name": "abort",
      "outputs": [],
      "payable": false,
      "stateMutability": "nonpayable",
      "type": "function"
    },
    {
      "constant": false,
      "inputs": [
        {
          "name": "newDelegateKey",
          "type": "address"
        }
      ],
      "name": "updateDelegateKey",
      "outputs": [],
      "payable": false,
      "stateMutability": "nonpayable",
      "type": "function"
    },
    {
      "constant": false,
      "inputs": [
        {
          "name": "delegateTo",
          "type": "address"
        }
      ],
      "name": "delegateShares",
      "outputs": [],
      "payable": false,
      "stateMutability": "nonpayable",
      "type": "function"
    },
    {
      "constant": false,
      "inputs": [
        {
          "name": "retrieveFrom",
          "type": "address"
        }
      ],
      "name": "retrieveShares",
      "outputs": [],
      "payable": false,
      "stateMutability": "nonpayable",
      "type": "function"
    },
    {
      "constant": true,
      "inputs": [
        {
          "name": "delegate",
          "type": "address"
        },
        {
          "name": "member",
          "type": "address"
        }
      ],
      "name": "getArrayPointer",
      "outputs": [
        {
          "name": "",
          "type": "uint256"
        }
      ],
      "payable": false,
      "stateMutability": "view",
      "type": "function"
    },
    {
      "constant": true,
      "inputs": [
        {
          "name": "delegate",
          "type": "address"
        }
      ],
      "name": "getArray",
      "outputs": [
        {
          "name": "",
          "type": "address[]"
        }
      ],
      "payable": false,
      "stateMutability": "view",
      "type": "function"
    },
    {
      "constant": true,
      "inputs": [],
      "name": "getCurrentPeriod",
      "outputs": [
        {
          "name": "",
          "type": "uint256"
        }
      ],
      "payable": false,
      "stateMutability": "view",
      "type": "function"
    },
    {
      "constant": true,
      "inputs": [],
      "name": "getProposalQueueLength",
      "outputs": [
        {
          "name": "",
          "type": "uint256"
        }
      ],
      "payable": false,
      "stateMutability": "view",
      "type": "function"
    },
    {
      "constant": true,
      "inputs": [
        {
          "name": "delegate",
          "type": "address"
        }
      ],
      "name": "getSharesDelegated",
      "outputs": [
        {
          "name": "",
          "type": "uint256"
        }
      ],
      "payable": false,
      "stateMutability": "view",
      "type": "function"
    },
    {
      "constant": true,
      "inputs": [
        {
          "name": "highestIndexYesVote",
          "type": "uint256"
        }
      ],
      "name": "canRagequit",
      "outputs": [
        {
          "name": "",
          "type": "bool"
        }
      ],
      "payable": false,
      "stateMutability": "view",
      "type": "function"
    },
    {
      "constant": true,
      "inputs": [
        {
          "name": "startingPeriod",
          "type": "uint256"
        }
      ],
      "name": "hasVotingPeriodExpired",
      "outputs": [
        {
          "name": "",
          "type": "bool"
        }
      ],
      "payable": false,
      "stateMutability": "view",
      "type": "function"
    },
    {
      "constant": true,
      "inputs": [
        {
          "name": "memberAddress",
          "type": "address"
        },
        {
          "name": "proposalIndex",
          "type": "uint256"
        }
      ],
      "name": "getMemberProposalVote",
      "outputs": [
        {
          "name": "",
          "type": "uint8"
        }
      ],
      "payable": false,
      "stateMutability": "view",
      "type": "function"
    }
  ],
  "bytecode": "0x60806040526000600a556000600b553480156200001b57600080fd5b506040516101208062006d4183398101806040526101208110156200003f57600080fd5b81019080805190602001909291908051906020019092919080519060200190929190805190602001909291908051906020019092919080519060200190929190805190602001909291908051906020019092919080519060200190929190505050600073ffffffffffffffffffffffffffffffffffffffff168973ffffffffffffffffffffffffffffffffffffffff16141515156200012a576040517f08c379a000000000000000000000000000000000000000000000000000000000815260040180806020018281038252602a81526020018062006b0c602a913960400191505060405180910390fd5b600073ffffffffffffffffffffffffffffffffffffffff168873ffffffffffffffffffffffffffffffffffffffff1614151515620001b4576040517f08c379a000000000000000000000000000000000000000000000000000000000815260040180806020018281038252603081526020018062006ce16030913960400191505060405180910390fd5b60008711151562000211576040517f08c379a000000000000000000000000000000000000000000000000000000000815260040180806020018281038252603181526020018062006cb06031913960400191505060405180910390fd5b6000861115156200026e576040517f08c379a000000000000000000000000000000000000000000000000000000000815260040180806020018281038252603581526020018062006c7b6035913960400191505060405180910390fd5b670de0b6b3a76400008611151515620002d3576040517f08c379a000000000000000000000000000000000000000000000000000000000815260040180806020018281038252603781526020018062006b366037913960400191505060405180910390fd5b670de0b6b3a7640000851115151562000338576040517f08c379a000000000000000000000000000000000000000000000000000000000815260040180806020018281038252603681526020018062006c456036913960400191505060405180910390fd5b60008411151562000395576040517f08c379a000000000000000000000000000000000000000000000000000000000815260040180806020018281038252602e81526020018062006ade602e913960400191505060405180910390fd5b858411151515620003f2576040517f08c379a000000000000000000000000000000000000000000000000000000000815260040180806020018281038252605781526020018062006bee6057913960600191505060405180910390fd5b6000821115156200044f576040517f08c379a000000000000000000000000000000000000000000000000000000000815260040180806020018281038252603081526020018062006d116030913960400191505060405180910390fd5b670de0b6b3a76400008211151515620004b4576040517f08c379a000000000000000000000000000000000000000000000000000000000815260040180806020018281038252603281526020018062006bbc6032913960400191505060405180910390fd5b80831015151562000511576040517f08c379a000000000000000000000000000000000000000000000000000000000815260040180806020018281038252604f81526020018062006b6d604f913960600191505060405180910390fd5b87600860006101000a81548173ffffffffffffffffffffffffffffffffffffffff021916908373ffffffffffffffffffffffffffffffffffffffff1602179055508760405162000561906200088a565b808273ffffffffffffffffffffffffffffffffffffffff1673ffffffffffffffffffffffffffffffffffffffff168152602001915050604051809103906000f080158015620005b4573d6000803e3d6000fd5b50600960006101000a81548173ffffffffffffffffffffffffffffffffffffffff021916908373ffffffffffffffffffffffffffffffffffffffff160217905550866000819055508560018190555084600281905550836003819055508260048190555081600581905550806006819055504260078190555060c0604051908101604052808a73ffffffffffffffffffffffffffffffffffffffff168152602001600181526020016001151581526020016000815260200160006040519080825280602002602001820160405280156200069d5781602001602082028038833980820191505090505b50815260200160001515815250600c60008b73ffffffffffffffffffffffffffffffffffffffff1673ffffffffffffffffffffffffffffffffffffffff16815260200190815260200160002060008201518160000160006101000a81548173ffffffffffffffffffffffffffffffffffffffff021916908373ffffffffffffffffffffffffffffffffffffffff1602179055506020820151816001015560408201518160020160006101000a81548160ff0219169083151502179055506060820151816003015560808201518160050190805190602001906200078292919062000898565b5060a08201518160060160006101000a81548160ff02191690831515021790555090505088600d60008b73ffffffffffffffffffffffffffffffffffffffff1673ffffffffffffffffffffffffffffffffffffffff16815260200190815260200160002060006101000a81548173ffffffffffffffffffffffffffffffffffffffff021916908373ffffffffffffffffffffffffffffffffffffffff1602179055506001600a819055508873ffffffffffffffffffffffffffffffffffffffff167f03995a801b13c36325306deef859ef977ce61c6e15a794281bf969d20482522760016040518082815260200191505060405180910390a25050505050505050506200096d565b6108f680620061e883390190565b82805482825590600052602060002090810192821562000914579160200282015b82811115620009135782518260006101000a81548173ffffffffffffffffffffffffffffffffffffffff021916908373ffffffffffffffffffffffffffffffffffffffff16021790555091602001919060010190620008b9565b5b50905062000923919062000927565b5090565b6200096a91905b808211156200096657600081816101000a81549073ffffffffffffffffffffffffffffffffffffffff0219169055506001016200092e565b5090565b90565b61586b806200097d6000396000f3fe608060405234801561001057600080fd5b5060043610610202576000357c0100000000000000000000000000000000000000000000000000000000900480637d5b6c721161012c578063a3dc3800116100bf578063bab462591161008e578063bab4625914610a6e578063e50701f414610ab8578063e63bc62d14610ae6578063eca7aeee14610b1457610202565b8063a3dc3800146109a2578063a42afd29146109e8578063afe5475f14610a32578063b470aade14610a5057610202565b80639425a476116100fb5780639425a476146107ee578063962006c31461083457806396d3f3391461092357806399653fbe1461096757610202565b80637d5b6c72146107665780638340bbce146107845780638436593f146107a25780638b15a605146107d057610202565b80633b214a74116101a457806368e86df71161017357806368e86df71461066e57806373d62d28146106b25780637896ddaf1461072a578063797daf701461074857610202565b80633b214a74146103db578063402c179414610533578063479797a7146105b757806363858f2d1461065057610202565b806308ae4b0c116101e057806308ae4b0c146102b35780631a396a4a1461035b5780632582bf2a146103795780633a98ef39146103bd57610202565b806303e32fa114610207578063044a0ca814610225578063086146d214610295575b600080fd5b61020f610b6c565b6040518082815260200191505060405180910390f35b6102716004803603604081101561023b57600080fd5b81019080803573ffffffffffffffffffffffffffffffffffffffff16906020019092919080359060200190929190505050610b72565b6040518082600281111561028157fe5b60ff16815260200191505060405180910390f35b61029d610ced565b6040518082815260200191505060405180910390f35b6102f5600480360360208110156102c957600080fd5b81019080803573ffffffffffffffffffffffffffffffffffffffff169060200190929190505050610d1d565b604051808673ffffffffffffffffffffffffffffffffffffffff1673ffffffffffffffffffffffffffffffffffffffff16815260200185815260200184151515158152602001838152602001821515151581526020019550505050505060405180910390f35b610363610d8d565b6040518082815260200191505060405180910390f35b6103bb6004803603602081101561038f57600080fd5b81019080803573ffffffffffffffffffffffffffffffffffffffff169060200190929190505050610d93565b005b6103c56112c2565b6040518082815260200191505060405180910390f35b610407600480360360208110156103f157600080fd5b81019080803590602001909291905050506112c8565b604051808d73ffffffffffffffffffffffffffffffffffffffff1673ffffffffffffffffffffffffffffffffffffffff1681526020018c73ffffffffffffffffffffffffffffffffffffffff1673ffffffffffffffffffffffffffffffffffffffff1681526020018b81526020018a815260200189815260200188815260200187151515158152602001861515151581526020018515151515815260200184815260200180602001838152602001828103825284818151815260200191508051906020019080838360005b838110156104ed5780820151818401526020810190506104d2565b50505050905090810190601f16801561051a5780820380516001836020036101000a031916815260200191505b509d505050505050505050505050505060405180910390f35b6105756004803603602081101561054957600080fd5b81019080803573ffffffffffffffffffffffffffffffffffffffff169060200190929190505050611436565b604051808273ffffffffffffffffffffffffffffffffffffffff1673ffffffffffffffffffffffffffffffffffffffff16815260200191505060405180910390f35b6105f9600480360360208110156105cd57600080fd5b81019080803573ffffffffffffffffffffffffffffffffffffffff169060200190929190505050611469565b6040518080602001828103825283818151815260200191508051906020019060200280838360005b8381101561063c578082015181840152602081019050610621565b505050509050019250505060405180910390f35b6106586115fb565b6040518082815260200191505060405180910390f35b6106b06004803603602081101561068457600080fd5b81019080803573ffffffffffffffffffffffffffffffffffffffff169060200190929190505050611601565b005b610714600480360360408110156106c857600080fd5b81019080803573ffffffffffffffffffffffffffffffffffffffff169060200190929190803573ffffffffffffffffffffffffffffffffffffffff1690602001909291905050506119bd565b6040518082815260200191505060405180910390f35b610732611a47565b6040518082815260200191505060405180910390f35b610750611a4d565b6040518082815260200191505060405180910390f35b61076e611a5a565b6040518082815260200191505060405180910390f35b61078c611a60565b6040518082815260200191505060405180910390f35b6107ce600480360360208110156107b857600080fd5b8101908080359060200190929190505050611a66565b005b6107d8611e6c565b6040518082815260200191505060405180910390f35b61081a6004803603602081101561080457600080fd5b8101908080359060200190929190505050611e72565b604051808215151515815260200191505060405180910390f35b6109216004803603608081101561084a57600080fd5b81019080803573ffffffffffffffffffffffffffffffffffffffff16906020019092919080359060200190929190803590602001909291908035906020019064010000000081111561089b57600080fd5b8201836020820111156108ad57600080fd5b803590602001918460018302840111640100000000831117156108cf57600080fd5b91908080601f016020809104026020016040519081016040528093929190818152602001838380828437600081840152601f19601f820116905080830192505050505050509192919290505050611e9a565b005b6109656004803603602081101561093957600080fd5b81019080803573ffffffffffffffffffffffffffffffffffffffff169060200190929190505050612779565b005b6109a06004803603604081101561097d57600080fd5b8101908080359060200190929190803560ff169060200190929190505050612d21565b005b6109ce600480360360208110156109b857600080fd5b81019080803590602001909291905050506135d2565b604051808215151515815260200191505060405180910390f35b6109f0613668565b604051808273ffffffffffffffffffffffffffffffffffffffff1673ffffffffffffffffffffffffffffffffffffffff16815260200191505060405180910390f35b610a3a61368e565b6040518082815260200191505060405180910390f35b610a58613694565b6040518082815260200191505060405180910390f35b610a7661369a565b604051808273ffffffffffffffffffffffffffffffffffffffff1673ffffffffffffffffffffffffffffffffffffffff16815260200191505060405180910390f35b610ae460048036036020811015610ace57600080fd5b81019080803590602001909291905050506136c0565b005b610b1260048036036020811015610afc57600080fd5b8101908080359060200190929190505050613ae1565b005b610b5660048036036020811015610b2a57600080fd5b81019080803573ffffffffffffffffffffffffffffffffffffffff169060200190929190505050614ada565b6040518082815260200191505060405180910390f35b60065481565b6000600c60008473ffffffffffffffffffffffffffffffffffffffff1673ffffffffffffffffffffffffffffffffffffffff16815260200190815260200160002060020160009054906101000a900460ff161515610c1b576040517f08c379a00000000000000000000000000000000000000000000000000000000081526004018080602001828103825260348152602001806154b96034913960400191505060405180910390fd5b600e8054905082101515610c7a576040517f08c379a00000000000000000000000000000000000000000000000000000000081526004018080602001828103825260368152602001806151be6036913960400191505060405180910390fd5b600e82815481101515610c8957fe5b90600052602060002090600b0201600a0160008473ffffffffffffffffffffffffffffffffffffffff1673ffffffffffffffffffffffffffffffffffffffff16815260200190815260200160002060009054906101000a900460ff16905092915050565b6000610d18600054610d0a60075442614beb90919063ffffffff16565b614c0d90919063ffffffff16565b905090565b600c6020528060005260406000206000915090508060000160009054906101000a900473ffffffffffffffffffffffffffffffffffffffff16908060010154908060020160009054906101000a900460ff16908060030154908060060160009054906101000a900460ff16905085565b600b5481565b6000600c60003373ffffffffffffffffffffffffffffffffffffffff1673ffffffffffffffffffffffffffffffffffffffff16815260200190815260200160002060010154111515610e30576040517f08c379a00000000000000000000000000000000000000000000000000000000081526004018080602001828103825260218152602001806150776021913960400191505060405180910390fd5b600073ffffffffffffffffffffffffffffffffffffffff168173ffffffffffffffffffffffffffffffffffffffff1614151515610eb8576040517f08c379a000000000000000000000000000000000000000000000000000000000815260040180806020018281038252603681526020018061570f6036913960400191505060405180910390fd5b3373ffffffffffffffffffffffffffffffffffffffff168173ffffffffffffffffffffffffffffffffffffffff1614151561109d57600c60008273ffffffffffffffffffffffffffffffffffffffff1673ffffffffffffffffffffffffffffffffffffffff16815260200190815260200160002060020160009054906101000a900460ff16151515610f95576040517f08c379a000000000000000000000000000000000000000000000000000000000815260040180806020018281038252603b81526020018061503c603b913960400191505060405180910390fd5b600c6000600d60008473ffffffffffffffffffffffffffffffffffffffff1673ffffffffffffffffffffffffffffffffffffffff16815260200190815260200160002060009054906101000a900473ffffffffffffffffffffffffffffffffffffffff1673ffffffffffffffffffffffffffffffffffffffff1673ffffffffffffffffffffffffffffffffffffffff16815260200190815260200160002060020160009054906101000a900460ff1615151561109c576040517f08c379a00000000000000000000000000000000000000000000000000000000081526004018080602001828103825260418152602001806155e46041913960600191505060405180910390fd5b5b6000600c60003373ffffffffffffffffffffffffffffffffffffffff1673ffffffffffffffffffffffffffffffffffffffff16815260200190815260200160002090506000600d60008360000160009054906101000a900473ffffffffffffffffffffffffffffffffffffffff1673ffffffffffffffffffffffffffffffffffffffff1673ffffffffffffffffffffffffffffffffffffffff16815260200190815260200160002060006101000a81548173ffffffffffffffffffffffffffffffffffffffff021916908373ffffffffffffffffffffffffffffffffffffffff16021790555033600d60008473ffffffffffffffffffffffffffffffffffffffff1673ffffffffffffffffffffffffffffffffffffffff16815260200190815260200160002060006101000a81548173ffffffffffffffffffffffffffffffffffffffff021916908373ffffffffffffffffffffffffffffffffffffffff160217905550818160000160006101000a81548173ffffffffffffffffffffffffffffffffffffffff021916908373ffffffffffffffffffffffffffffffffffffffff1602179055503373ffffffffffffffffffffffffffffffffffffffff167fde7b64a369e10562cc2e71f0f1f944eaf144b75fead6ecb51fac9c4dd693488583604051808273ffffffffffffffffffffffffffffffffffffffff1673ffffffffffffffffffffffffffffffffffffffff16815260200191505060405180910390a25050565b600a5481565b600e818154811015156112d757fe5b90600052602060002090600b02016000915090508060000160009054906101000a900473ffffffffffffffffffffffffffffffffffffffff16908060010160009054906101000a900473ffffffffffffffffffffffffffffffffffffffff16908060020154908060030154908060040154908060050154908060060160009054906101000a900460ff16908060060160019054906101000a900460ff16908060060160029054906101000a900460ff1690806007015490806008018054600181600116156101000203166002900480601f0160208091040260200160405190810160405280929190818152602001828054600181600116156101000203166002900480156114265780601f106113fb57610100808354040283529160200191611426565b820191906000526020600020905b81548152906001019060200180831161140957829003601f168201915b505050505090806009015490508c565b600d6020528060005260406000206000915054906101000a900473ffffffffffffffffffffffffffffffffffffffff1681565b6060611473614cb0565b600c60008473ffffffffffffffffffffffffffffffffffffffff1673ffffffffffffffffffffffffffffffffffffffff16815260200190815260200160002060c060405190810160405290816000820160009054906101000a900473ffffffffffffffffffffffffffffffffffffffff1673ffffffffffffffffffffffffffffffffffffffff1673ffffffffffffffffffffffffffffffffffffffff168152602001600182015481526020016002820160009054906101000a900460ff1615151515815260200160038201548152602001600582018054806020026020016040519081016040528092919081815260200182805480156115c857602002820191906000526020600020905b8160009054906101000a900473ffffffffffffffffffffffffffffffffffffffff1673ffffffffffffffffffffffffffffffffffffffff168152602001906001019080831161157e575b505050505081526020016006820160009054906101000a900460ff16151515158152505090508060800151915050919050565b60025481565b6000600c60003373ffffffffffffffffffffffffffffffffffffffff1673ffffffffffffffffffffffffffffffffffffffff1681526020019081526020016000206001015411151561169e576040517f08c379a00000000000000000000000000000000000000000000000000000000081526004018080602001828103825260218152602001806150776021913960400191505060405180910390fd5b6000600c60003373ffffffffffffffffffffffffffffffffffffffff1673ffffffffffffffffffffffffffffffffffffffff16815260200190815260200160002090506000600c60008473ffffffffffffffffffffffffffffffffffffffff1673ffffffffffffffffffffffffffffffffffffffff1681526020019081526020016000209050600073ffffffffffffffffffffffffffffffffffffffff168373ffffffffffffffffffffffffffffffffffffffff16141515156117ac576040517f08c379a00000000000000000000000000000000000000000000000000000000081526004018080602001828103825260328152602001806152cd6032913960400191505060405180910390fd5b600015158260060160009054906101000a900460ff16151514151561181c576040517f08c379a000000000000000000000000000000000000000000000000000000000815260040180806020018281038252605c8152602001806157e4605c913960600191505060405180910390fd5b600115158160020160009054906101000a900460ff16151514151561188c576040517f08c379a000000000000000000000000000000000000000000000000000000000815260040180806020018281038252604881526020018061532c6048913960600191505060405180910390fd5b806005013390806001815401808255809150509060018203906000526020600020016000909192909190916101000a81548173ffffffffffffffffffffffffffffffffffffffff021916908373ffffffffffffffffffffffffffffffffffffffff1602179055505080600501805490508260040160008573ffffffffffffffffffffffffffffffffffffffff1673ffffffffffffffffffffffffffffffffffffffff1681526020019081526020016000208190555060018260060160006101000a81548160ff0219169083151502179055508273ffffffffffffffffffffffffffffffffffffffff163373ffffffffffffffffffffffffffffffffffffffff167f9ca98554e3fcbcbc289c81fc34e344afe12e8c53c534a5996c37be8e49dab2d960405160405180910390a3505050565b6000600c60008373ffffffffffffffffffffffffffffffffffffffff1673ffffffffffffffffffffffffffffffffffffffff16815260200190815260200160002060040160008473ffffffffffffffffffffffffffffffffffffffff1673ffffffffffffffffffffffffffffffffffffffff16815260200190815260200160002054905092915050565b60035481565b6000600e80549050905090565b60075481565b60015481565b6000600c60003373ffffffffffffffffffffffffffffffffffffffff1673ffffffffffffffffffffffffffffffffffffffff16815260200190815260200160002060010154111515611b03576040517f08c379a00000000000000000000000000000000000000000000000000000000081526004018080602001828103825260218152602001806150776021913960400191505060405180910390fd5b6000600a5490506000600c60003373ffffffffffffffffffffffffffffffffffffffff1673ffffffffffffffffffffffffffffffffffffffff168152602001908152602001600020905082816001015410151515611bac576040517f08c379a00000000000000000000000000000000000000000000000000000000081526004018080602001828103825260268152602001806156c26026913960400191505060405180910390fd5b611bb981600301546135d2565b1515611c10576040517f08c379a000000000000000000000000000000000000000000000000000000000815260040180806020018281038252605e8152602001806153f2605e913960600191505060405180910390fd5b600015158160060160009054906101000a900460ff161515141515611c80576040517f08c379a00000000000000000000000000000000000000000000000000000000081526004018080602001828103825260238152602001806150d56023913960400191505060405180910390fd5b611c97838260010154614beb90919063ffffffff16565b8160010181905550611cb483600a54614beb90919063ffffffff16565b600a81905550600960009054906101000a900473ffffffffffffffffffffffffffffffffffffffff1673ffffffffffffffffffffffffffffffffffffffff1663b5c5f6723385856040518463ffffffff167c0100000000000000000000000000000000000000000000000000000000028152600401808473ffffffffffffffffffffffffffffffffffffffff1673ffffffffffffffffffffffffffffffffffffffff1681526020018381526020018281526020019350505050602060405180830381600087803b158015611d8757600080fd5b505af1158015611d9b573d6000803e3d6000fd5b505050506040513d6020811015611db157600080fd5b81019080805190602001909291905050501515611e19576040517f08c379a000000000000000000000000000000000000000000000000000000000815260040180806020018281038252603d815260200180615098603d913960400191505060405180910390fd5b3373ffffffffffffffffffffffffffffffffffffffff167f667cb7a1818eacd2e3a421e734429ba9c4c7dec85e578e098b6d72cd2bfbf2f6846040518082815260200191505060405180910390a2505050565b60045481565b6000611e8960015483614c3790919063ffffffff16565b611e91610ced565b10159050919050565b6000600c6000600d60003373ffffffffffffffffffffffffffffffffffffffff1673ffffffffffffffffffffffffffffffffffffffff16815260200190815260200160002060009054906101000a900473ffffffffffffffffffffffffffffffffffffffff1673ffffffffffffffffffffffffffffffffffffffff1673ffffffffffffffffffffffffffffffffffffffff16815260200190815260200160002060010154111515611f96576040517f08c379a00000000000000000000000000000000000000000000000000000000081526004018080602001828103825260258152602001806150f86025913960400191505060405180910390fd5b600073ffffffffffffffffffffffffffffffffffffffff168473ffffffffffffffffffffffffffffffffffffffff161415151561201e576040517f08c379a000000000000000000000000000000000000000000000000000000000815260040180806020018281038252602e81526020018061529f602e913960400191505060405180910390fd5b670de0b6b3a764000061205083612042600b54600a54614c3790919063ffffffff16565b614c3790919063ffffffff16565b111515156120a9576040517f08c379a000000000000000000000000000000000000000000000000000000000815260040180806020018281038252603281526020018061552c6032913960400191505060405180910390fd5b6120be82600b54614c3790919063ffffffff16565b600b819055506000600d60003373ffffffffffffffffffffffffffffffffffffffff1673ffffffffffffffffffffffffffffffffffffffff16815260200190815260200160002060009054906101000a900473ffffffffffffffffffffffffffffffffffffffff169050600860009054906101000a900473ffffffffffffffffffffffffffffffffffffffff1673ffffffffffffffffffffffffffffffffffffffff166323b872dd33306004546040518463ffffffff167c0100000000000000000000000000000000000000000000000000000000028152600401808473ffffffffffffffffffffffffffffffffffffffff1673ffffffffffffffffffffffffffffffffffffffff1681526020018373ffffffffffffffffffffffffffffffffffffffff1673ffffffffffffffffffffffffffffffffffffffff1681526020018281526020019350505050602060405180830381600087803b15801561222357600080fd5b505af1158015612237573d6000803e3d6000fd5b505050506040513d602081101561224d57600080fd5b810190808051906020019092919050505015156122b5576040517f08c379a000000000000000000000000000000000000000000000000000000000815260040180806020018281038252603f815260200180614f34603f913960400191505060405180910390fd5b600860009054906101000a900473ffffffffffffffffffffffffffffffffffffffff1673ffffffffffffffffffffffffffffffffffffffff166323b872dd8630876040518463ffffffff167c0100000000000000000000000000000000000000000000000000000000028152600401808473ffffffffffffffffffffffffffffffffffffffff1673ffffffffffffffffffffffffffffffffffffffff1681526020018373ffffffffffffffffffffffffffffffffffffffff1673ffffffffffffffffffffffffffffffffffffffff1681526020018281526020019350505050602060405180830381600087803b1580156123ae57600080fd5b505af11580156123c2573d6000803e3d6000fd5b505050506040513d60208110156123d857600080fd5b81019080805190602001909291905050501515612440576040517f08c379a000000000000000000000000000000000000000000000000000000000815260040180806020018281038252603681526020018061511d6036913960400191505060405180910390fd5b60006124b360016124a5612452610ced565b6000600e805490501461249d57600e61247a6001600e80549050614beb90919063ffffffff16565b81548110151561248657fe5b90600052602060002090600b0201600301546124a0565b60005b614c58565b614c3790919063ffffffff16565b90506124bd614d01565b610180604051908101604052808473ffffffffffffffffffffffffffffffffffffffff1681526020018873ffffffffffffffffffffffffffffffffffffffff168152602001868152602001838152602001600081526020016000815260200160001515815260200160001515815260200160001515815260200187815260200185815260200160008152509050600e819080600181540180825580915050906001820390600052602060002090600b02016000909192909190915060008201518160000160006101000a81548173ffffffffffffffffffffffffffffffffffffffff021916908373ffffffffffffffffffffffffffffffffffffffff16021790555060208201518160010160006101000a81548173ffffffffffffffffffffffffffffffffffffffff021916908373ffffffffffffffffffffffffffffffffffffffff16021790555060408201518160020155606082015181600301556080820151816004015560a0820151816005015560c08201518160060160006101000a81548160ff02191690831515021790555060e08201518160060160016101000a81548160ff0219169083151502179055506101008201518160060160026101000a81548160ff02191690831515021790555061012082015181600701556101408201518160080190805190602001906126b7929190614d95565b50610160820151816009015550505060006126e16001600e80549050614beb90919063ffffffff16565b90508773ffffffffffffffffffffffffffffffffffffffff168473ffffffffffffffffffffffffffffffffffffffff163373ffffffffffffffffffffffffffffffffffffffff167f2d105ebbc222c190059b3979356e13469f6a29a350add74ac3bf4f22f16301d6848b8b60405180848152602001838152602001828152602001935050505060405180910390a45050505050505050565b6000600c60003373ffffffffffffffffffffffffffffffffffffffff1673ffffffffffffffffffffffffffffffffffffffff16815260200190815260200160002060010154111515612816576040517f08c379a00000000000000000000000000000000000000000000000000000000081526004018080602001828103825260218152602001806150776021913960400191505060405180910390fd5b6000600c60003373ffffffffffffffffffffffffffffffffffffffff1673ffffffffffffffffffffffffffffffffffffffff16815260200190815260200160002090506000600c60008473ffffffffffffffffffffffffffffffffffffffff1673ffffffffffffffffffffffffffffffffffffffff168152602001908152602001600020905060008260040160008573ffffffffffffffffffffffffffffffffffffffff1673ffffffffffffffffffffffffffffffffffffffff168152602001908152602001600020549050600073ffffffffffffffffffffffffffffffffffffffff168473ffffffffffffffffffffffffffffffffffffffff161415151561296a576040517f08c379a00000000000000000000000000000000000000000000000000000000081526004018080602001828103825260328152602001806152cd6032913960400191505060405180910390fd5b600115158360060160009054906101000a900460ff1615151415156129da576040517f08c379a00000000000000000000000000000000000000000000000000000000081526004018080602001828103825260488152602001806152576048913960600191505060405180910390fd5b3373ffffffffffffffffffffffffffffffffffffffff1682600501612a09600184614beb90919063ffffffff16565b815481101515612a1557fe5b9060005260206000200160009054906101000a900473ffffffffffffffffffffffffffffffffffffffff1673ffffffffffffffffffffffffffffffffffffffff16141515612aae576040517f08c379a0000000000000000000000000000000000000000000000000000000008152600401808060200182810382526052815260200180614f736052913960600191505060405180910390fd5b6000612acb60018460050180549050614beb90919063ffffffff16565b905060008360050180549050905060008460050183815481101515612aec57fe5b9060005260206000200160009054906101000a900473ffffffffffffffffffffffffffffffffffffffff16905081841015612c54578460050183815481101515612b3257fe5b9060005260206000200160009054906101000a900473ffffffffffffffffffffffffffffffffffffffff1685600501612b75600187614beb90919063ffffffff16565b815481101515612b8157fe5b9060005260206000200160006101000a81548173ffffffffffffffffffffffffffffffffffffffff021916908373ffffffffffffffffffffffffffffffffffffffff1602179055506000600c60008373ffffffffffffffffffffffffffffffffffffffff1673ffffffffffffffffffffffffffffffffffffffff1681526020019081526020016000209050848160040160008a73ffffffffffffffffffffffffffffffffffffffff1673ffffffffffffffffffffffffffffffffffffffff16815260200190815260200160002081905550505b612cad6001600c60008a73ffffffffffffffffffffffffffffffffffffffff1673ffffffffffffffffffffffffffffffffffffffff16815260200190815260200160002060050180549050614beb90919063ffffffff16565b600c60008973ffffffffffffffffffffffffffffffffffffffff1673ffffffffffffffffffffffffffffffffffffffff16815260200190815260200160002060050181612cfa9190614e15565b5060008660060160006101000a81548160ff02191690831515021790555050505050505050565b6000600c6000600d60003373ffffffffffffffffffffffffffffffffffffffff1673ffffffffffffffffffffffffffffffffffffffff16815260200190815260200160002060009054906101000a900473ffffffffffffffffffffffffffffffffffffffff1673ffffffffffffffffffffffffffffffffffffffff1673ffffffffffffffffffffffffffffffffffffffff16815260200190815260200160002060010154111515612e1d576040517f08c379a00000000000000000000000000000000000000000000000000000000081526004018080602001828103825260258152602001806150f86025913960400191505060405180910390fd5b6000600d60003373ffffffffffffffffffffffffffffffffffffffff1673ffffffffffffffffffffffffffffffffffffffff16815260200190815260200160002060009054906101000a900473ffffffffffffffffffffffffffffffffffffffff1690506000600c60008373ffffffffffffffffffffffffffffffffffffffff1673ffffffffffffffffffffffffffffffffffffffff1681526020019081526020016000209050600e8054905084101515612f23576040517f08c379a000000000000000000000000000000000000000000000000000000000815260040180806020018281038252602c815260200180615450602c913960400191505060405180910390fd5b6000600e85815481101515612f3457fe5b90600052602060002090600b0201905060038460ff16101515612fa2576040517f08c379a00000000000000000000000000000000000000000000000000000000081526004018080602001828103825260318152602001806157456031913960400191505060405180910390fd5b60008460ff166002811115612fb357fe5b90508160030154612fc2610ced565b1015151561301b576040517f08c379a00000000000000000000000000000000000000000000000000000000081526004018080602001828103825260328152602001806156256032913960400191505060405180910390fd5b6130288260030154611e72565b151515613080576040517f08c379a00000000000000000000000000000000000000000000000000000000081526004018080602001828103825260378152602001806153746037913960400191505060405180910390fd5b6000600281111561308d57fe5b82600a0160008673ffffffffffffffffffffffffffffffffffffffff1673ffffffffffffffffffffffffffffffffffffffff16815260200190815260200160002060009054906101000a900460ff1660028111156130e757fe5b14151561313f576040517f08c379a000000000000000000000000000000000000000000000000000000000815260040180806020018281038252603e8152602001806155a6603e913960400191505060405180910390fd5b6001600281111561314c57fe5b81600281111561315857fe5b1480613179575060028081111561316b57fe5b81600281111561317757fe5b145b15156131d0576040517f08c379a00000000000000000000000000000000000000000000000000000000081526004018080602001828103825260328152602001806151f46032913960400191505060405180910390fd5b8160060160029054906101000a900460ff1615151561323a576040517f08c379a000000000000000000000000000000000000000000000000000000000815260040180806020018281038252602e815260200180615657602e913960400191505060405180910390fd5b600015158360060160009054906101000a900460ff1615151415156132aa576040517f08c379a00000000000000000000000000000000000000000000000000000000081526004018080602001828103825260238152602001806150d56023913960400191505060405180910390fd5b8082600a0160008673ffffffffffffffffffffffffffffffffffffffff1673ffffffffffffffffffffffffffffffffffffffff16815260200190815260200160002060006101000a81548160ff0219169083600281111561330757fe5b0217905550600080600090505b846005018054905081101561349e576000856005018281548110151561333657fe5b9060005260206000200160009054906101000a900473ffffffffffffffffffffffffffffffffffffffff1690506000600281111561337057fe5b85600a0160008373ffffffffffffffffffffffffffffffffffffffff1673ffffffffffffffffffffffffffffffffffffffff16815260200190815260200160002060009054906101000a900460ff1660028111156133ca57fe5b1415613490576000600c60008973ffffffffffffffffffffffffffffffffffffffff1673ffffffffffffffffffffffffffffffffffffffff1681526020019081526020016000206001015490508486600a0160008473ffffffffffffffffffffffffffffffffffffffff1673ffffffffffffffffffffffffffffffffffffffff16815260200190815260200160002060006101000a81548160ff0219169083600281111561347457fe5b021790555061348c8185614c3790919063ffffffff16565b9350505b508080600101915050613314565b50600160028111156134ac57fe5b8260028111156134b857fe5b1415613518576134db818560010154018460040154614c3790919063ffffffff16565b836004018190555083600301548711156134f9578684600301819055505b8260090154600a54111561351357600a5483600901819055505b61355d565b60028081111561352457fe5b82600281111561353057fe5b141561355c57613553818560010154018460050154614c3790919063ffffffff16565b83600501819055505b5b8473ffffffffffffffffffffffffffffffffffffffff163373ffffffffffffffffffffffffffffffffffffffff16887f29bf0061f2faa9daa482f061b116195432d435536d8af4ae6b3c5dd78223679b89604051808260ff1660ff16815260200191505060405180910390a450505050505050565b6000600e8054905082101515613633576040517f08c379a000000000000000000000000000000000000000000000000000000000815260040180806020018281038252602d8152602001806152ff602d913960400191505060405180910390fd5b600e8281548110151561364257fe5b90600052602060002090600b020160060160009054906101000a900460ff169050919050565b600960009054906101000a900473ffffffffffffffffffffffffffffffffffffffff1681565b60055481565b60005481565b600860009054906101000a900473ffffffffffffffffffffffffffffffffffffffff1681565b600e805490508110151561371f576040517f08c379a00000000000000000000000000000000000000000000000000000000081526004018080602001828103825260278152602001806156e86027913960400191505060405180910390fd5b6000600e8281548110151561373057fe5b90600052602060002090600b020190508060010160009054906101000a900473ffffffffffffffffffffffffffffffffffffffff1673ffffffffffffffffffffffffffffffffffffffff163373ffffffffffffffffffffffffffffffffffffffff161415156137ea576040517f08c379a000000000000000000000000000000000000000000000000000000000815260040180806020018281038252602c815260200180615192602c913960400191505060405180910390fd5b6138036003548260030154614c3790919063ffffffff16565b61380b610ced565b101515613863576040517f08c379a00000000000000000000000000000000000000000000000000000000081526004018080602001828103825260318152602001806152266031913960400191505060405180910390fd5b8060060160029054906101000a900460ff161515156138cd576040517f08c379a000000000000000000000000000000000000000000000000000000000815260040180806020018281038252603b815260200180615001603b913960400191505060405180910390fd5b6000816007015490506000826007018190555060018260060160026101000a81548160ff021916908315150217905550600860009054906101000a900473ffffffffffffffffffffffffffffffffffffffff1673ffffffffffffffffffffffffffffffffffffffff1663a9059cbb8360010160009054906101000a900473ffffffffffffffffffffffffffffffffffffffff16836040518363ffffffff167c0100000000000000000000000000000000000000000000000000000000028152600401808373ffffffffffffffffffffffffffffffffffffffff1673ffffffffffffffffffffffffffffffffffffffff16815260200182815260200192505050602060405180830381600087803b1580156139e657600080fd5b505af11580156139fa573d6000803e3d6000fd5b505050506040513d6020811015613a1057600080fd5b81019080805190602001909291905050501515613a78576040517f08c379a000000000000000000000000000000000000000000000000000000000815260040180806020018281038252603f8152602001806154ed603f913960400191505060405180910390fd5b827fa749dd3df92cae4d106b3eadf60c0dffd3698de09c67ce58ce6f5d02eb82131333604051808273ffffffffffffffffffffffffffffffffffffffff1673ffffffffffffffffffffffffffffffffffffffff16815260200191505060405180910390a2505050565b600e8054905081101515613b40576040517f08c379a00000000000000000000000000000000000000000000000000000000081526004018080602001828103825260318152602001806157b36031913960400191505060405180910390fd5b6000600e82815481101515613b5157fe5b90600052602060002090600b02019050613b8e600254613b806001548460030154614c3790919063ffffffff16565b614c3790919063ffffffff16565b613b96610ced565b10151515613bef576040517f08c379a000000000000000000000000000000000000000000000000000000000815260040180806020018281038252603f815260200180615153603f913960400191505060405180910390fd5b600015158160060160009054906101000a900460ff161515141515613c5f576040517f08c379a000000000000000000000000000000000000000000000000000000000815260040180806020018281038252603d815260200180615776603d913960400191505060405180910390fd5b6000821480613cab5750600e613c7f600184614beb90919063ffffffff16565b815481101515613c8b57fe5b90600052602060002090600b020160060160009054906101000a900460ff165b1515613d02576040517f08c379a000000000000000000000000000000000000000000000000000000000815260040180806020018281038252603d81526020018061547c603d913960400191505060405180910390fd5b60018160060160006101000a81548160ff021916908315150217905550613d388160020154600b54614beb90919063ffffffff16565b600b819055506000816005015482600401541190508160090154613d69600554600a54614c7290919063ffffffff16565b1015613d7457600090505b808015613d9057508160060160029054906101000a900460ff16155b156145a15760018260060160016101000a81548160ff021916908315150217905550600c60008360010160009054906101000a900473ffffffffffffffffffffffffffffffffffffffff1673ffffffffffffffffffffffffffffffffffffffff1673ffffffffffffffffffffffffffffffffffffffff16815260200190815260200160002060020160009054906101000a900460ff1615613f1757613ea88260020154600c60008560010160009054906101000a900473ffffffffffffffffffffffffffffffffffffffff1673ffffffffffffffffffffffffffffffffffffffff1673ffffffffffffffffffffffffffffffffffffffff16815260200190815260200160002060010154614c3790919063ffffffff16565b600c60008460010160009054906101000a900473ffffffffffffffffffffffffffffffffffffffff1673ffffffffffffffffffffffffffffffffffffffff1673ffffffffffffffffffffffffffffffffffffffff16815260200190815260200160002060010181905550614400565b600c6000600d60008560010160009054906101000a900473ffffffffffffffffffffffffffffffffffffffff1673ffffffffffffffffffffffffffffffffffffffff1673ffffffffffffffffffffffffffffffffffffffff16815260200190815260200160002060009054906101000a900473ffffffffffffffffffffffffffffffffffffffff1673ffffffffffffffffffffffffffffffffffffffff1673ffffffffffffffffffffffffffffffffffffffff16815260200190815260200160002060020160009054906101000a900460ff1615614178576000600d60008460010160009054906101000a900473ffffffffffffffffffffffffffffffffffffffff1673ffffffffffffffffffffffffffffffffffffffff1673ffffffffffffffffffffffffffffffffffffffff16815260200190815260200160002060009054906101000a900473ffffffffffffffffffffffffffffffffffffffff16905080600d60008373ffffffffffffffffffffffffffffffffffffffff1673ffffffffffffffffffffffffffffffffffffffff16815260200190815260200160002060006101000a81548173ffffffffffffffffffffffffffffffffffffffff021916908373ffffffffffffffffffffffffffffffffffffffff16021790555080600c60008373ffffffffffffffffffffffffffffffffffffffff1673ffffffffffffffffffffffffffffffffffffffff16815260200190815260200160002060000160006101000a81548173ffffffffffffffffffffffffffffffffffffffff021916908373ffffffffffffffffffffffffffffffffffffffff160217905550505b60c0604051908101604052808360010160009054906101000a900473ffffffffffffffffffffffffffffffffffffffff1673ffffffffffffffffffffffffffffffffffffffff1681526020018360020154815260200160011515815260200160008152602001600060405190808252806020026020018201604052801561420e5781602001602082028038833980820191505090505b50815260200160001515815250600c60008460010160009054906101000a900473ffffffffffffffffffffffffffffffffffffffff1673ffffffffffffffffffffffffffffffffffffffff1673ffffffffffffffffffffffffffffffffffffffff16815260200190815260200160002060008201518160000160006101000a81548173ffffffffffffffffffffffffffffffffffffffff021916908373ffffffffffffffffffffffffffffffffffffffff1602179055506020820151816001015560408201518160020160006101000a81548160ff021916908315150217905550606082015181600301556080820151816005019080519060200190614315929190614e41565b5060a08201518160060160006101000a81548160ff0219169083151502179055509050508160010160009054906101000a900473ffffffffffffffffffffffffffffffffffffffff16600d60008460010160009054906101000a900473ffffffffffffffffffffffffffffffffffffffff1673ffffffffffffffffffffffffffffffffffffffff1673ffffffffffffffffffffffffffffffffffffffff16815260200190815260200160002060006101000a81548173ffffffffffffffffffffffffffffffffffffffff021916908373ffffffffffffffffffffffffffffffffffffffff1602179055505b6144198260020154600a54614c3790919063ffffffff16565b600a81905550600860009054906101000a900473ffffffffffffffffffffffffffffffffffffffff1673ffffffffffffffffffffffffffffffffffffffff1663a9059cbb600960009054906101000a900473ffffffffffffffffffffffffffffffffffffffff1684600701546040518363ffffffff167c0100000000000000000000000000000000000000000000000000000000028152600401808373ffffffffffffffffffffffffffffffffffffffff1673ffffffffffffffffffffffffffffffffffffffff16815260200182815260200192505050602060405180830381600087803b15801561450a57600080fd5b505af115801561451e573d6000803e3d6000fd5b505050506040513d602081101561453457600080fd5b8101908080519060200190929190505050151561459c576040517f08c379a000000000000000000000000000000000000000000000000000000000815260040180806020018281038252603d815260200180615685603d913960400191505060405180910390fd5b614721565b600860009054906101000a900473ffffffffffffffffffffffffffffffffffffffff1673ffffffffffffffffffffffffffffffffffffffff1663a9059cbb8360010160009054906101000a900473ffffffffffffffffffffffffffffffffffffffff1684600701546040518363ffffffff167c0100000000000000000000000000000000000000000000000000000000028152600401808373ffffffffffffffffffffffffffffffffffffffff1673ffffffffffffffffffffffffffffffffffffffff16815260200182815260200192505050602060405180830381600087803b15801561468e57600080fd5b505af11580156146a2573d6000803e3d6000fd5b505050506040513d60208110156146b857600080fd5b81019080805190602001909291905050501515614720576040517f08c379a000000000000000000000000000000000000000000000000000000000815260040180806020018281038252603c815260200180614fc5603c913960400191505060405180910390fd5b5b600860009054906101000a900473ffffffffffffffffffffffffffffffffffffffff1673ffffffffffffffffffffffffffffffffffffffff1663a9059cbb336006546040518363ffffffff167c0100000000000000000000000000000000000000000000000000000000028152600401808373ffffffffffffffffffffffffffffffffffffffff1673ffffffffffffffffffffffffffffffffffffffff16815260200182815260200192505050602060405180830381600087803b1580156147e857600080fd5b505af11580156147fc573d6000803e3d6000fd5b505050506040513d602081101561481257600080fd5b8101908080519060200190929190505050151561487a576040517f08c379a000000000000000000000000000000000000000000000000000000000815260040180806020018281038252604881526020018061555e6048913960600191505060405180910390fd5b600860009054906101000a900473ffffffffffffffffffffffffffffffffffffffff1673ffffffffffffffffffffffffffffffffffffffff1663a9059cbb8360000160009054906101000a900473ffffffffffffffffffffffffffffffffffffffff166148f4600654600454614beb90919063ffffffff16565b6040518363ffffffff167c0100000000000000000000000000000000000000000000000000000000028152600401808373ffffffffffffffffffffffffffffffffffffffff1673ffffffffffffffffffffffffffffffffffffffff16815260200182815260200192505050602060405180830381600087803b15801561497957600080fd5b505af115801561498d573d6000803e3d6000fd5b505050506040513d60208110156149a357600080fd5b81019080805190602001909291905050501515614a0b576040517f08c379a00000000000000000000000000000000000000000000000000000000081526004018080602001828103825260478152602001806153ab6047913960600191505060405180910390fd5b8160000160009054906101000a900473ffffffffffffffffffffffffffffffffffffffff1673ffffffffffffffffffffffffffffffffffffffff168260010160009054906101000a900473ffffffffffffffffffffffffffffffffffffffff1673ffffffffffffffffffffffffffffffffffffffff16847f3f6fc303a82367bb4947244ba21c569a5ed2e870610f1a693366142309d7cbea85600701548660020154866040518084815260200183815260200182151515158152602001935050505060405180910390a4505050565b600080600c60008473ffffffffffffffffffffffffffffffffffffffff1673ffffffffffffffffffffffffffffffffffffffff1681526020019081526020016000209050600080600090505b8260050180549050811015614be05760008360050182815481101515614b4857fe5b9060005260206000200160009054906101000a900473ffffffffffffffffffffffffffffffffffffffff1690506000600c60008373ffffffffffffffffffffffffffffffffffffffff1673ffffffffffffffffffffffffffffffffffffffff168152602001908152602001600020600101549050614bcf8185614c3790919063ffffffff16565b935050508080600101915050614b26565b508092505050919050565b6000828211151515614bfc57600080fd5b600082840390508091505092915050565b60008082111515614c1d57600080fd5b60008284811515614c2a57fe5b0490508091505092915050565b6000808284019050838110151515614c4e57600080fd5b8091505092915050565b600081831015614c685781614c6a565b825b905092915050565b600080831415614c855760009050614caa565b60008284029050828482811515614c9857fe5b04141515614ca557600080fd5b809150505b92915050565b60c060405190810160405280600073ffffffffffffffffffffffffffffffffffffffff1681526020016000815260200160001515815260200160008152602001606081526020016000151581525090565b61018060405190810160405280600073ffffffffffffffffffffffffffffffffffffffff168152602001600073ffffffffffffffffffffffffffffffffffffffff168152602001600081526020016000815260200160008152602001600081526020016000151581526020016000151581526020016000151581526020016000815260200160608152602001600081525090565b828054600181600116156101000203166002900490600052602060002090601f016020900481019282601f10614dd657805160ff1916838001178555614e04565b82800160010185558215614e04579182015b82811115614e03578251825591602001919060010190614de8565b5b509050614e119190614ecb565b5090565b815481835581811115614e3c57818360005260206000209182019101614e3b9190614ecb565b5b505050565b828054828255906000526020600020908101928215614eba579160200282015b82811115614eb95782518260006101000a81548173ffffffffffffffffffffffffffffffffffffffff021916908373ffffffffffffffffffffffffffffffffffffffff16021790555091602001919060010190614e61565b5b509050614ec79190614ef0565b5090565b614eed91905b80821115614ee9576000816000905550600101614ed1565b5090565b90565b614f3091905b80821115614f2c57600081816101000a81549073ffffffffffffffffffffffffffffffffffffffff021916905550600101614ef6565b5090565b9056fe4d6f6c6f63683a3a7375626d697450726f706f73616c202d2070726f706f73616c206465706f73697420746f6b656e207472616e73666572206661696c65644d6f6c6f6368284e3250293a3a64656c6567617465536861726573202d20696e76616c696420747269616c20617474656d7074696e6720746f2072657472697665206e6f74206f776e6564207368617265734d6f6c6f63683a3a70726f6365737350726f706f73616c202d206661696c696e6720766f746520746f6b656e207472616e73666572206661696c65644d6f6c6f63683a3a61626f7274202d2070726f706f73616c206d757374206e6f74206861766520616c7265616479206265656e2061626f727465644d6f6c6f63683a3a75706461746544656c65676174654b6579202d2063616e74206f7665727772697465206578697374696e67206d656d626572734d6f6c6f63683a3a6f6e6c794d656d626572202d206e6f742061206d656d6265724d6f6c6f63683a3a7261676571756974202d207769746864726177616c206f6620746f6b656e732066726f6d206775696c6442616e6b206661696c65644d6f6c6f63683a3a6d656d62657220686173207368617265732064656c6567617465644d6f6c6f63683a3a6f6e6c7944656c6567617465202d206e6f7420612064656c65676174654d6f6c6f63683a3a7375626d697450726f706f73616c202d207472696275746520746f6b656e207472616e73666572206661696c65644d6f6c6f63683a3a70726f6365737350726f706f73616c202d2070726f706f73616c206973206e6f7420726561647920746f2062652070726f6365737365644d6f6c6f63683a3a61626f7274202d206d73672e73656e646572206d757374206265206170706c6963616e744d6f6c6f63683a3a6765744d656d62657250726f706f73616c566f7465202d2070726f706f73616c20646f65736e27742065786973744d6f6c6f63683a3a7375626d6974566f7465202d20766f7465206d7573742062652065697468657220596573206f72204e6f4d6f6c6f63683a3a61626f7274202d2061626f72742077696e646f77206d757374206e6f742068617665207061737365644d6f6c6f6368284e3250293a3a64656c6567617465536861726573202d20696e76616c696420747269616c20617474656d7074696e6720746f2072657472697665207368617265734d6f6c6f63683a3a7375626d697450726f706f73616c202d206170706c6963616e742063616e6e6f7420626520304d6f6c6f6368284e3250293a3a64656c6567617465536861726573202d2064656c65676174652063616e6e6f7420626520304d6f6c6f63683a3a63616e5261676571756974202d2070726f706f73616c20646f6573206e6f742065786973744d6f6c6f6368284e3250293a3a64656c6567617465536861726573202d20617474656d7074696e6720746f2064656c65676174652073686172657320746f206e6f6e6d656d6265724d6f6c6f63683a3a7375626d6974566f7465202d2070726f706f73616c20766f74696e6720706572696f642068617320657870697265644d6f6c6f63683a3a70726f6365737350726f706f73616c202d206661696c656420746f2072657475726e2070726f706f73616c206465706f73697420746f2070726f706f7365724d6f6c6f63683a3a7261676571756974202d2063616e7420726167657175697420756e74696c206869676865737420696e6465782070726f706f73616c206d656d62657220766f74656420594553206f6e2069732070726f6365737365644d6f6c6f63683a3a7375626d6974566f7465202d2070726f706f73616c20646f6573206e6f742065786973744d6f6c6f63683a3a70726f6365737350726f706f73616c202d2070726576696f75732070726f706f73616c206d7573742062652070726f6365737365644d6f6c6f63683a3a6765744d656d62657250726f706f73616c566f7465202d206d656d62657220646f65736e27742065786973744d6f6c6f63683a3a70726f6365737350726f706f73616c202d206661696c656420746f2072657475726e207472696275746520746f206170706c6963616e744d6f6c6f63683a3a7375626d697450726f706f73616c202d20746f6f206d616e7920736861726573207265717565737465644d6f6c6f63683a3a70726f6365737350726f706f73616c202d206661696c656420746f2073656e642070726f63657373696e672072657761726420746f206d73672e73656e6465724d6f6c6f63683a3a7375626d6974566f7465202d206d656d6265722068617320616c726561647920766f746564206f6e20746869732070726f706f73616c4d6f6c6f63683a3a75706461746544656c65676174654b6579202d2063616e74206f7665727772697465206578697374696e672064656c6567617465206b6579734d6f6c6f63683a3a7375626d6974566f7465202d20766f74696e6720706572696f6420686173206e6f7420737461727465644d6f6c6f63683a3a7375626d6974566f7465202d2070726f706f73616c20686173206265656e2061626f727465644d6f6c6f63683a3a70726f6365737350726f706f73616c202d20746f6b656e207472616e7366657220746f206775696c642062616e6b206661696c65644d6f6c6f63683a3a7261676571756974202d20696e73756666696369656e74207368617265734d6f6c6f63683a3a61626f7274202d2070726f706f73616c20646f6573206e6f742065786973744d6f6c6f63683a3a75706461746544656c65676174654b6579202d206e657744656c65676174654b65792063616e6e6f7420626520304d6f6c6f63683a3a7375626d6974566f7465202d2075696e74566f7465206d757374206265206c657373207468616e20334d6f6c6f63683a3a70726f6365737350726f706f73616c202d2070726f706f73616c2068617320616c7265616479206265656e2070726f6365737365644d6f6c6f63683a3a70726f6365737350726f706f73616c202d2070726f706f73616c20646f6573206e6f742065786973744d6f6c6f6368284e3250293a3a64656c6567617465536861726573202d20617474656d7074696e6720746f2064656c656761746520736861726573207768696c65206f7468657220736861726573206172652064656c656761746564a165627a7a72305820ff6a45ea65796317d65db2201574a1e4cc498f630c86f9731ed5a3ff3a5727160029608060405234801561001057600080fd5b506040516020806108f68339810180604052602081101561003057600080fd5b8101908080519060200190929190505050336000806101000a81548173ffffffffffffffffffffffffffffffffffffffff021916908373ffffffffffffffffffffffffffffffffffffffff1602179055506000809054906101000a900473ffffffffffffffffffffffffffffffffffffffff1673ffffffffffffffffffffffffffffffffffffffff16600073ffffffffffffffffffffffffffffffffffffffff167f8be0079c531659141344cd1fd0a4f28419497f9722a3daafe3b4186f6b6457e060405160405180910390a380600160006101000a81548173ffffffffffffffffffffffffffffffffffffffff021916908373ffffffffffffffffffffffffffffffffffffffff160217905550506107a88061014e6000396000f3fe608060405234801561001057600080fd5b506004361061007f576000357c010000000000000000000000000000000000000000000000000000000090048063715018a6146100845780638da5cb5b1461008e5780638f32d59b146100d8578063b5c5f672146100fa578063bab462591461016a578063f2fde38b146101b4575b600080fd5b61008c6101f8565b005b6100966102ca565b604051808273ffffffffffffffffffffffffffffffffffffffff1673ffffffffffffffffffffffffffffffffffffffff16815260200191505060405180910390f35b6100e06102f3565b604051808215151515815260200191505060405180910390f35b6101506004803603606081101561011057600080fd5b81019080803573ffffffffffffffffffffffffffffffffffffffff169060200190929190803590602001909291908035906020019092919050505061034a565b604051808215151515815260200191505060405180910390f35b6101726105d5565b604051808273ffffffffffffffffffffffffffffffffffffffff1673ffffffffffffffffffffffffffffffffffffffff16815260200191505060405180910390f35b6101f6600480360360208110156101ca57600080fd5b81019080803573ffffffffffffffffffffffffffffffffffffffff1690602001909291905050506105fb565b005b6102006102f3565b151561020b57600080fd5b600073ffffffffffffffffffffffffffffffffffffffff166000809054906101000a900473ffffffffffffffffffffffffffffffffffffffff1673ffffffffffffffffffffffffffffffffffffffff167f8be0079c531659141344cd1fd0a4f28419497f9722a3daafe3b4186f6b6457e060405160405180910390a360008060006101000a81548173ffffffffffffffffffffffffffffffffffffffff021916908373ffffffffffffffffffffffffffffffffffffffff160217905550565b60008060009054906101000a900473ffffffffffffffffffffffffffffffffffffffff16905090565b60008060009054906101000a900473ffffffffffffffffffffffffffffffffffffffff1673ffffffffffffffffffffffffffffffffffffffff163373ffffffffffffffffffffffffffffffffffffffff1614905090565b60006103546102f3565b151561035f57600080fd5b600061047b8361046d86600160009054906101000a900473ffffffffffffffffffffffffffffffffffffffff1673ffffffffffffffffffffffffffffffffffffffff166370a08231306040518263ffffffff167c0100000000000000000000000000000000000000000000000000000000028152600401808273ffffffffffffffffffffffffffffffffffffffff1673ffffffffffffffffffffffffffffffffffffffff16815260200191505060206040518083038186803b15801561042457600080fd5b505afa158015610438573d6000803e3d6000fd5b505050506040513d602081101561044e57600080fd5b810190808051906020019092919050505061061a90919063ffffffff16565b61065890919063ffffffff16565b90508473ffffffffffffffffffffffffffffffffffffffff167f7fcf532c15f0a6db0bd6d0e038bea71d30d808c7d98cb3bf7268a95bf5081b65826040518082815260200191505060405180910390a2600160009054906101000a900473ffffffffffffffffffffffffffffffffffffffff1673ffffffffffffffffffffffffffffffffffffffff1663a9059cbb86836040518363ffffffff167c0100000000000000000000000000000000000000000000000000000000028152600401808373ffffffffffffffffffffffffffffffffffffffff1673ffffffffffffffffffffffffffffffffffffffff16815260200182815260200192505050602060405180830381600087803b15801561059057600080fd5b505af11580156105a4573d6000803e3d6000fd5b505050506040513d60208110156105ba57600080fd5b81019080805190602001909291905050509150509392505050565b600160009054906101000a900473ffffffffffffffffffffffffffffffffffffffff1681565b6106036102f3565b151561060e57600080fd5b61061781610682565b50565b60008083141561062d5760009050610652565b6000828402905082848281151561064057fe5b0414151561064d57600080fd5b809150505b92915050565b6000808211151561066857600080fd5b6000828481151561067557fe5b0490508091505092915050565b600073ffffffffffffffffffffffffffffffffffffffff168173ffffffffffffffffffffffffffffffffffffffff16141515156106be57600080fd5b8073ffffffffffffffffffffffffffffffffffffffff166000809054906101000a900473ffffffffffffffffffffffffffffffffffffffff1673ffffffffffffffffffffffffffffffffffffffff167f8be0079c531659141344cd1fd0a4f28419497f9722a3daafe3b4186f6b6457e060405160405180910390a3806000806101000a81548173ffffffffffffffffffffffffffffffffffffffff021916908373ffffffffffffffffffffffffffffffffffffffff1602179055505056fea165627a7a72305820a9285a518c8c2024c25c3c3116bf971119fd8db01c129ee477f706e070c1ebe100294d6f6c6f63683a3a636f6e7374727563746f72202d205f61626f727457696e646f772063616e6e6f7420626520304d6f6c6f63683a3a636f6e7374727563746f72202d2073756d6d6f6e65722063616e6e6f7420626520304d6f6c6f63683a3a636f6e7374727563746f72202d205f766f74696e67506572696f644c656e6774682065786365656473206c696d69744d6f6c6f63683a3a636f6e7374727563746f72202d205f70726f706f73616c4465706f7369742063616e6e6f7420626520736d616c6c6572207468616e205f70726f63657373696e675265776172644d6f6c6f63683a3a636f6e7374727563746f72202d205f64696c7574696f6e426f756e642065786365656473206c696d69744d6f6c6f63683a3a636f6e7374727563746f72202d205f61626f727457696e646f77206d75737420626520736d616c6c6572207468616e206f7220657175616c20746f205f766f74696e67506572696f644c656e6774684d6f6c6f63683a3a636f6e7374727563746f72202d205f6772616365506572696f644c656e6774682065786365656473206c696d69744d6f6c6f63683a3a636f6e7374727563746f72202d205f766f74696e67506572696f644c656e6774682063616e6e6f7420626520304d6f6c6f63683a3a636f6e7374727563746f72202d205f706572696f644475726174696f6e2063616e6e6f7420626520304d6f6c6f63683a3a636f6e7374727563746f72202d205f617070726f766564546f6b656e2063616e6e6f7420626520304d6f6c6f63683a3a636f6e7374727563746f72202d205f64696c7574696f6e426f756e642063616e6e6f742062652030",
  "source": "pragma solidity 0.5.3;\n\nimport \"./oz/SafeMath.sol\";\nimport \"./oz/IERC20.sol\";\nimport \"./GuildBank.sol\";\n\ncontract Moloch {\n    using SafeMath for uint256;\n\n    /***************\n    GLOBAL CONSTANTS\n    ***************/\n    uint256 public periodDuration; // default = 17280 = 4.8 hours in seconds (5 periods per day)\n    uint256 public votingPeriodLength; // default = 35 periods (7 days)\n    uint256 public gracePeriodLength; // default = 35 periods (7 days)\n    uint256 public abortWindow; // default = 5 periods (1 day)\n    uint256 public proposalDeposit; // default = 10 ETH (~$1,000 worth of ETH at contract deployment)\n    uint256 public dilutionBound; // default = 3 - maximum multiplier a YES voter will be obligated to pay in case of mass ragequit\n    uint256 public processingReward; // default = 0.1 - amount of ETH to give to whoever processes a proposal\n    uint256 public summoningTime; // needed to determine the current period\n\n    IERC20 public approvedToken; // approved token contract reference; default = wETH\n    GuildBank public guildBank; // guild bank contract reference\n\n    // HARD-CODED LIMITS\n    // These numbers are quite arbitrary; they are small enough to avoid overflows when doing calculations\n    // with periods or shares, yet big enough to not limit reasonable use cases.\n    uint256 constant MAX_VOTING_PERIOD_LENGTH = 10**18; // maximum length of voting period\n    uint256 constant MAX_GRACE_PERIOD_LENGTH = 10**18; // maximum length of grace period\n    uint256 constant MAX_DILUTION_BOUND = 10**18; // maximum dilution bound\n    uint256 constant MAX_NUMBER_OF_SHARES = 10**18; // maximum number of shares that can be minted\n\n    /***************\n    EVENTS\n    ***************/\n    event SubmitProposal(uint256 proposalIndex, address indexed delegateKey, address indexed memberAddress, address indexed applicant, uint256 tokenTribute, uint256 sharesRequested);\n    event SubmitVote(uint256 indexed proposalIndex, address indexed delegateKey, address indexed memberAddress, uint8 uintVote);\n    event ProcessProposal(uint256 indexed proposalIndex, address indexed applicant, address indexed memberAddress, uint256 tokenTribute, uint256 sharesRequested, bool didPass);\n    event Ragequit(address indexed memberAddress, uint256 sharesToBurn);\n    event Abort(uint256 indexed proposalIndex, address applicantAddress);\n    event UpdateDelegateKey(address indexed memberAddress, address newDelegateKey);\n    event SummonComplete(address indexed summoner, uint256 shares);\n    event SharesDelegated(address indexed from, address indexed to);\n    event SharesRetrieved(address indexed from, address indexed to);\n\n    /******************\n    INTERNAL ACCOUNTING\n    ******************/\n    uint256 public totalShares = 0; // total shares across all members\n    uint256 public totalSharesRequested = 0; // total shares that have been requested in unprocessed proposals\n\n    enum Vote {\n        Null, // default value, counted as abstention\n        Yes,\n        No\n    }\n\n    struct Member {\n        address delegateKey; // the key responsible for submitting proposals and voting - defaults to member address unless updated\n        uint256 shares; // the # of shares assigned to this member\n        bool exists; // always true once a member has been created\n        uint256 highestIndexYesVote; // highest proposal index # on which the member voted YES\n\n        mapping (address => uint256) arrayPointer;    // the Pointer at what position the adress of this member is stored in the array of the delegated\n        address[] addressDelegatedTo;  // the adreses of member which delegated to this member\n        bool delegated;\n    }\n\n\n    struct Proposal {\n        address proposer; // the member who submitted the proposal\n        address applicant; // the applicant who wishes to become a member - this key will be used for withdrawals\n        uint256 sharesRequested; // the # of shares the applicant is requesting\n        uint256 startingPeriod; // the period in which voting can start for this proposal\n        uint256 yesVotes; // the total number of YES votes for this proposal\n        uint256 noVotes; // the total number of NO votes for this proposal\n        bool processed; // true only if the proposal has been processed\n        bool didPass; // true only if the proposal passed\n        bool aborted; // true only if applicant calls \"abort\" fn before end of voting period\n        uint256 tokenTribute; // amount of tokens offered as tribute\n        string details; // proposal details - could be IPFS hash, plaintext, or JSON\n        uint256 maxTotalSharesAtYesVote; // the maximum # of total shares encountered at a yes vote on this proposal\n        mapping (address => Vote) votesByMember; // the votes on this proposal by each member\n    }\n\n    mapping (address => Member) public members;\n    mapping (address => address) public memberAddressByDelegateKey;\n    Proposal[] public proposalQueue;\n\n    /********\n    MODIFIERS\n    ********/\n    modifier onlyMember {\n        require(members[msg.sender].shares > 0, \"Moloch::onlyMember - not a member\");\n        _;\n    }\n\n    modifier onlyDelegate {\n        require(members[memberAddressByDelegateKey[msg.sender]].shares > 0, \"Moloch::onlyDelegate - not a delegate\");\n        _;\n    }\n\n    /********\n    FUNCTIONS\n    ********/\n    constructor(\n        address summoner,\n        address _approvedToken,\n        uint256 _periodDuration,\n        uint256 _votingPeriodLength,\n        uint256 _gracePeriodLength,\n        uint256 _abortWindow,\n        uint256 _proposalDeposit,\n        uint256 _dilutionBound,\n        uint256 _processingReward\n    ) public {\n        require(summoner != address(0), \"Moloch::constructor - summoner cannot be 0\");\n        require(_approvedToken != address(0), \"Moloch::constructor - _approvedToken cannot be 0\");\n        require(_periodDuration > 0, \"Moloch::constructor - _periodDuration cannot be 0\");\n        require(_votingPeriodLength > 0, \"Moloch::constructor - _votingPeriodLength cannot be 0\");\n        require(_votingPeriodLength <= MAX_VOTING_PERIOD_LENGTH, \"Moloch::constructor - _votingPeriodLength exceeds limit\");\n        require(_gracePeriodLength <= MAX_GRACE_PERIOD_LENGTH, \"Moloch::constructor - _gracePeriodLength exceeds limit\");\n        require(_abortWindow > 0, \"Moloch::constructor - _abortWindow cannot be 0\");\n        require(_abortWindow <= _votingPeriodLength, \"Moloch::constructor - _abortWindow must be smaller than or equal to _votingPeriodLength\");\n        require(_dilutionBound > 0, \"Moloch::constructor - _dilutionBound cannot be 0\");\n        require(_dilutionBound <= MAX_DILUTION_BOUND, \"Moloch::constructor - _dilutionBound exceeds limit\");\n        require(_proposalDeposit >= _processingReward, \"Moloch::constructor - _proposalDeposit cannot be smaller than _processingReward\");\n\n        approvedToken = IERC20(_approvedToken);\n\n        guildBank = new GuildBank(_approvedToken);\n\n        periodDuration = _periodDuration;\n        votingPeriodLength = _votingPeriodLength;\n        gracePeriodLength = _gracePeriodLength;\n        abortWindow = _abortWindow;\n        proposalDeposit = _proposalDeposit;\n        dilutionBound = _dilutionBound;\n        processingReward = _processingReward;\n\n        summoningTime = now;\n\n        members[summoner] = Member(summoner, 1, true, 0, new address[](0),false);\n        memberAddressByDelegateKey[summoner] = summoner;\n        totalShares = 1;\n\n        emit SummonComplete(summoner, 1);\n    }\n\n    /*****************\n    PROPOSAL FUNCTIONS\n    *****************/\n\n    function submitProposal(\n        address applicant,\n        uint256 tokenTribute,\n        uint256 sharesRequested,\n        string memory details\n    )\n        public\n        onlyDelegate\n    {\n        require(applicant != address(0), \"Moloch::submitProposal - applicant cannot be 0\");\n\n        // Make sure we won't run into overflows when doing calculations with shares.\n        // Note that totalShares + totalSharesRequested + sharesRequested is an upper bound\n        // on the number of shares that can exist until this proposal has been processed.\n        require(totalShares.add(totalSharesRequested).add(sharesRequested) <= MAX_NUMBER_OF_SHARES, \"Moloch::submitProposal - too many shares requested\");\n\n        totalSharesRequested = totalSharesRequested.add(sharesRequested);\n\n        address memberAddress = memberAddressByDelegateKey[msg.sender];\n\n        // collect proposal deposit from proposer and store it in the Moloch until the proposal is processed\n        require(approvedToken.transferFrom(msg.sender, address(this), proposalDeposit), \"Moloch::submitProposal - proposal deposit token transfer failed\");\n\n        // collect tribute from applicant and store it in the Moloch until the proposal is processed\n        require(approvedToken.transferFrom(applicant, address(this), tokenTribute), \"Moloch::submitProposal - tribute token transfer failed\");\n\n        // compute startingPeriod for proposal\n        uint256 startingPeriod = max(\n            getCurrentPeriod(),\n            proposalQueue.length == 0 ? 0 : proposalQueue[proposalQueue.length.sub(1)].startingPeriod\n        ).add(1);\n\n        // create proposal ...\n        Proposal memory proposal = Proposal({\n            proposer: memberAddress,\n            applicant: applicant,\n            sharesRequested: sharesRequested,\n            startingPeriod: startingPeriod,\n            yesVotes: 0,\n            noVotes: 0,\n            processed: false,\n            didPass: false,\n            aborted: false,\n            tokenTribute: tokenTribute,\n            details: details,\n            maxTotalSharesAtYesVote: 0\n        });\n\n        // ... and append it to the queue\n        proposalQueue.push(proposal);\n\n        uint256 proposalIndex = proposalQueue.length.sub(1);\n        emit SubmitProposal(proposalIndex, msg.sender, memberAddress, applicant, tokenTribute, sharesRequested);\n    }\n\n    function submitVote(uint256 proposalIndex, uint8 uintVote) public onlyDelegate {\n        address memberAddress = memberAddressByDelegateKey[msg.sender];\n        Member storage member = members[memberAddress];\n\n        require(proposalIndex < proposalQueue.length, \"Moloch::submitVote - proposal does not exist\");\n        Proposal storage proposal = proposalQueue[proposalIndex];\n\n        require(uintVote < 3, \"Moloch::submitVote - uintVote must be less than 3\");\n        Vote vote = Vote(uintVote);\n\n        require(getCurrentPeriod() >= proposal.startingPeriod, \"Moloch::submitVote - voting period has not started\");\n        require(!hasVotingPeriodExpired(proposal.startingPeriod), \"Moloch::submitVote - proposal voting period has expired\");\n        require(proposal.votesByMember[memberAddress] == Vote.Null, \"Moloch::submitVote - member has already voted on this proposal\");\n        require(vote == Vote.Yes || vote == Vote.No, \"Moloch::submitVote - vote must be either Yes or No\");\n        require(!proposal.aborted, \"Moloch::submitVote - proposal has been aborted\");\n\n        require(member.delegated == false , \"Moloch::member has shares delegated\");\n\n        // store vote\n        proposal.votesByMember[memberAddress] = vote;\n\n        uint256 delegatedShares;\n\n        for (uint i=0; i< member.addressDelegatedTo.length; i++) {\n            address voted = member.addressDelegatedTo[i];\n\n            if (proposal.votesByMember[voted] == Vote.Null){\n\n                uint256 memberdelegatedShares = members[memberAddress].shares;\n                proposal.votesByMember[voted] = vote;\n                delegatedShares = delegatedShares.add(memberdelegatedShares);\n            }\n        }\n\n        // count vote\n        if (vote == Vote.Yes) {\n            proposal.yesVotes = proposal.yesVotes.add(member.shares + delegatedShares);\n\n            // set highest index (latest) yes vote - must be processed for member to ragequit\n            if (proposalIndex > member.highestIndexYesVote) {\n                member.highestIndexYesVote = proposalIndex;\n            }\n\n            // set maximum of total shares encountered at a yes vote - used to bound dilution for yes voters\n            if (totalShares > proposal.maxTotalSharesAtYesVote) {\n                proposal.maxTotalSharesAtYesVote = totalShares;\n            }\n\n        } else if (vote == Vote.No) {\n            proposal.noVotes = proposal.noVotes.add(member.shares + delegatedShares);\n        }\n\n        emit SubmitVote(proposalIndex, msg.sender, memberAddress, uintVote);\n    }\n\n    function processProposal(uint256 proposalIndex) public {\n        require(proposalIndex < proposalQueue.length, \"Moloch::processProposal - proposal does not exist\");\n        Proposal storage proposal = proposalQueue[proposalIndex];\n\n        require(getCurrentPeriod() >= proposal.startingPeriod.add(votingPeriodLength).add(gracePeriodLength), \"Moloch::processProposal - proposal is not ready to be processed\");\n        require(proposal.processed == false, \"Moloch::processProposal - proposal has already been processed\");\n        require(proposalIndex == 0 || proposalQueue[proposalIndex.sub(1)].processed, \"Moloch::processProposal - previous proposal must be processed\");\n\n        proposal.processed = true;\n        totalSharesRequested = totalSharesRequested.sub(proposal.sharesRequested);\n\n        bool didPass = proposal.yesVotes > proposal.noVotes;\n\n        // Make the proposal fail if the dilutionBound is exceeded\n        if (totalShares.mul(dilutionBound) < proposal.maxTotalSharesAtYesVote) {\n            didPass = false;\n        }\n\n        // PROPOSAL PASSED\n        if (didPass && !proposal.aborted) {\n\n            proposal.didPass = true;\n\n            // if the applicant is already a member, add to their existing shares\n            if (members[proposal.applicant].exists) {\n                members[proposal.applicant].shares = members[proposal.applicant].shares.add(proposal.sharesRequested);\n\n            // the applicant is a new member, create a new record for them\n            } else {\n                // if the applicant address is already taken by a member's delegateKey, reset it to their member address\n                if (members[memberAddressByDelegateKey[proposal.applicant]].exists) {\n                    address memberToOverride = memberAddressByDelegateKey[proposal.applicant];\n                    memberAddressByDelegateKey[memberToOverride] = memberToOverride;\n                    members[memberToOverride].delegateKey = memberToOverride;\n                }\n\n                // use applicant address as delegateKey by default\n                members[proposal.applicant] = Member(proposal.applicant, proposal.sharesRequested, true, 0,new address[](0), false);\n                memberAddressByDelegateKey[proposal.applicant] = proposal.applicant;\n            }\n\n            // mint new shares\n            totalShares = totalShares.add(proposal.sharesRequested);\n\n            // transfer tokens to guild bank\n            require(\n                approvedToken.transfer(address(guildBank), proposal.tokenTribute),\n                \"Moloch::processProposal - token transfer to guild bank failed\"\n            );\n\n        // PROPOSAL FAILED OR ABORTED\n        } else {\n            // return all tokens to the applicant\n            require(\n                approvedToken.transfer(proposal.applicant, proposal.tokenTribute),\n                \"Moloch::processProposal - failing vote token transfer failed\"\n            );\n        }\n\n        // send msg.sender the processingReward\n        require(\n            approvedToken.transfer(msg.sender, processingReward),\n            \"Moloch::processProposal - failed to send processing reward to msg.sender\"\n        );\n\n        // return deposit to proposer (subtract processing reward)\n        require(\n            approvedToken.transfer(proposal.proposer, proposalDeposit.sub(processingReward)),\n            \"Moloch::processProposal - failed to return proposal deposit to proposer\"\n        );\n\n        emit ProcessProposal(\n            proposalIndex,\n            proposal.applicant,\n            proposal.proposer,\n            proposal.tokenTribute,\n            proposal.sharesRequested,\n            didPass\n        );\n    }\n\n    function ragequit(uint256 sharesToBurn) public onlyMember {\n        uint256 initialTotalShares = totalShares;\n\n        Member storage member = members[msg.sender];\n\n        require(member.shares >= sharesToBurn, \"Moloch::ragequit - insufficient shares\");\n\n        require(canRagequit(member.highestIndexYesVote), \"Moloch::ragequit - cant ragequit until highest index proposal member voted YES on is processed\");\n\n        require(member.delegated == false , \"Moloch::member has shares delegated\");\n\n        // burn shares\n        member.shares = member.shares.sub(sharesToBurn);\n        totalShares = totalShares.sub(sharesToBurn);\n\n        // instruct guildBank to transfer fair share of tokens to the ragequitter\n        require(\n            guildBank.withdraw(msg.sender, sharesToBurn, initialTotalShares),\n            \"Moloch::ragequit - withdrawal of tokens from guildBank failed\"\n        );\n\n        emit Ragequit(msg.sender, sharesToBurn);\n    }\n\n    function abort(uint256 proposalIndex) public {\n        require(proposalIndex < proposalQueue.length, \"Moloch::abort - proposal does not exist\");\n        Proposal storage proposal = proposalQueue[proposalIndex];\n\n        require(msg.sender == proposal.applicant, \"Moloch::abort - msg.sender must be applicant\");\n        require(getCurrentPeriod() < proposal.startingPeriod.add(abortWindow), \"Moloch::abort - abort window must not have passed\");\n        require(!proposal.aborted, \"Moloch::abort - proposal must not have already been aborted\");\n\n        uint256 tokensToAbort = proposal.tokenTribute;\n        proposal.tokenTribute = 0;\n        proposal.aborted = true;\n\n        // return all tokens to the applicant\n        require(\n            approvedToken.transfer(proposal.applicant, tokensToAbort),\n            \"Moloch::processProposal - failed to return tribute to applicant\"\n        );\n\n        emit Abort(proposalIndex, msg.sender);\n    }\n\n    function updateDelegateKey(address newDelegateKey) public onlyMember {\n        require(newDelegateKey != address(0), \"Moloch::updateDelegateKey - newDelegateKey cannot be 0\");\n\n        // skip checks if member is setting the delegate key to their member address\n        if (newDelegateKey != msg.sender) {\n            require(!members[newDelegateKey].exists, \"Moloch::updateDelegateKey - cant overwrite existing members\");\n            require(!members[memberAddressByDelegateKey[newDelegateKey]].exists, \"Moloch::updateDelegateKey - cant overwrite existing delegate keys\");\n        }\n\n        Member storage member = members[msg.sender];\n        memberAddressByDelegateKey[member.delegateKey] = address(0);\n        memberAddressByDelegateKey[newDelegateKey] = msg.sender;\n        member.delegateKey = newDelegateKey;\n\n        emit UpdateDelegateKey(msg.sender, newDelegateKey);\n    }\n\n    /*************************\n    SHARE DELEGATION FUNCTIONS\n    **************************/\n\n    function delegateShares(address delegateTo) public onlyMember {\n        Member storage member = members[msg.sender];\n        Member storage delegateMember = members[delegateTo];\n        require(delegateTo != address(0), \"Moloch(N2P)::delegateShares - delegate cannot be 0\");\n        require(member.delegated == false, \"Moloch(N2P)::delegateShares - attempting to delegate shares while other shares are delegated\");\n        require(delegateMember.exists == true, \"Moloch(N2P)::delegateShares - attempting to delegate shares to nonmember\");\n\n        delegateMember.addressDelegatedTo.push(msg.sender);\n        member.arrayPointer[delegateTo] = delegateMember.addressDelegatedTo.length;    ///.sub(1)\n        member.delegated = true;\n\n       emit SharesDelegated(msg.sender, delegateTo);\n    }\n\n    function retrieveShares(address retrieveFrom) public onlyMember {\n        Member storage member = members[msg.sender];\n        Member storage memberRetrieve = members[retrieveFrom];\n        uint256 array_pointer = member.arrayPointer[retrieveFrom];\n\n        require(retrieveFrom != address(0), \"Moloch(N2P)::delegateShares - delegate cannot be 0\");\n        require(member.delegated == true, \"Moloch(N2P)::delegateShares - invalid trial attempting to retrive shares\");\n        require(memberRetrieve.addressDelegatedTo[array_pointer.sub(1)] == msg.sender, \"Moloch(N2P)::delegateShares - invalid trial attempting to retrive not owned shares\" );\n\n        uint256 last_member_pointer = memberRetrieve.addressDelegatedTo.length.sub(1);\n        uint256 length_array = memberRetrieve.addressDelegatedTo.length;\n        address adress_index_change = memberRetrieve.addressDelegatedTo[last_member_pointer];\n\n        //cleaning the array\n        if (array_pointer <  length_array ) {     //// if the Pointer stored in the member, which delegates is smaller than the length of the array stored in the delegate do\n\n          memberRetrieve.addressDelegatedTo[array_pointer.sub(1)] = memberRetrieve.addressDelegatedTo[last_member_pointer];   ///need to change index\n\n          Member storage member_index_change = members[adress_index_change];               /// creating a mem struct in memory of the member which needs to change index\n          member_index_change.arrayPointer[retrieveFrom] = array_pointer;\n        }\n        // we can now reduce the array length by 1\n        members[retrieveFrom].addressDelegatedTo.length = members[retrieveFrom].addressDelegatedTo.length.sub(1);\n\n\n        //require(sharesToRetrieve<=member.sharesDelegated[retrieveFrom], \"Moloch(N2P)::delegateShares - attempting to retrieve more shares that you delegated\");\n        member.delegated = false;\n       // emit SharesRetrieved(retrieveFrom, msg.sender, sharesToRetrieve);\n    }\n\n    /***************\n    GETTER FUNCTIONS\n    ***************/\n    function getArrayPointer(address delegate, address member)public view returns(uint256){\n        return  members[member].arrayPointer[delegate];\n    }\n\n\n    function getArray(address delegate)public view returns(address[] memory){\n        Member memory member = members[delegate];\n        return  member.addressDelegatedTo;\n    }\n\n    function max(uint256 x, uint256 y) internal pure returns (uint256) {\n        return x >= y ? x : y;\n    }\n\n    function getCurrentPeriod() public view returns (uint256) {\n        return now.sub(summoningTime).div(periodDuration);\n    }\n\n    function getProposalQueueLength() public view returns (uint256) {\n        return proposalQueue.length;\n    }\n\n    function getSharesDelegated(address delegate) public view returns(uint256){\n        Member storage member = members[delegate];\n        uint256 delegatedShares;\n\n        for (uint i=0; i< member.addressDelegatedTo.length; i++) {\n            address delegator = member.addressDelegatedTo[i];\n            uint256 memberdelegatedShares = members[delegator].shares;\n            delegatedShares = delegatedShares.add(memberdelegatedShares);\n        }\n\n        return delegatedShares;\n    }\n\n    // can only ragequit if the latest proposal you voted YES on has been processed\n    function canRagequit(uint256 highestIndexYesVote) public view returns (bool) {\n        require(highestIndexYesVote < proposalQueue.length, \"Moloch::canRagequit - proposal does not exist\");\n        return proposalQueue[highestIndexYesVote].processed;\n    }\n\n    function hasVotingPeriodExpired(uint256 startingPeriod) public view returns (bool) {\n        return getCurrentPeriod() >= startingPeriod.add(votingPeriodLength);\n    }\n\n    function getMemberProposalVote(address memberAddress, uint256 proposalIndex) public view returns (Vote) {\n        require(members[memberAddress].exists, \"Moloch::getMemberProposalVote - member doesn't exist\");\n        require(proposalIndex < proposalQueue.length, \"Moloch::getMemberProposalVote - proposal doesn't exist\");\n        return proposalQueue[proposalIndex].votesByMember[memberAddress];\n    }\n}\n",
  "sourcePath": "/home/p/Documents/dev/N2PDAO/moloch/contracts/Moloch.sol",
  "compiler": {
    "name": "solc",
    "version": "0.5.3+commit.10d17f24.Emscripten.clang"
  },
  "schemaVersion": "3.0.9",
  "updatedAt": "2019-06-03T11:21:29.323Z",
  "devdoc": {
    "methods": {}
  },
  "userdoc": {
    "methods": {
      "constructor": "****** FUNCTIONS*******",
      "delegateShares(address)": {
        "notice": "*********************** SHARE DELEGATION FUNCTIONS*************************"
      },
      "getArrayPointer(address,address)": {
        "notice": "************* GETTER FUNCTIONS**************"
      },
      "submitProposal(address,uint256,uint256,string)": {
        "notice": "*************** PROPOSAL FUNCTIONS****************"
      }
    }
  }
}